:020000040800F2
:10000000C8040020010100085F140008C51300089F
:100010005D140008A5040008BD17000800000000DA
:100020000000000000000000000000006314000851
:10003000DF04000800000000611400086D140008CF
:100040001B0100081B0100081B0100081B01000820
:100050001B0100081B0100081B0100081B01000810
:100060001B0100081B0100081B0100081B01000800
:100070001B0100081B010008A90400081B0100085F
:100080001B0100081B0100081B0100081B010008E0
:100090001B0100081B0100081B0100081B010008D0
:1000A0001B0100081B0100081B0100081B010008C0
:1000B0001B0100081B0100081B0100081B010008B0
:1000C0001B0100081B0100081B0100081B010008A0
:1000D0001B010008291700081B0100081B0100086C
:1000E0001B0100081B0100081B010008DFF80CD0F1
:1000F00000F0C6F90048004795180008C804002021
:100100000648804706480047FEE7FEE7FEE7FEE7B1
:10011000FEE7FEE7FEE7FEE7FEE7FEE7BD140008A8
:10012000ED000008202A04DB203A21FA02F0002129
:10013000704721FA02F3D040C2F1200291400843F7
:1001400019467047D2B201E000F8012B491EFBD2DC
:1001500070470022F6E710B513460A4604461946D2
:10016000FFF7F0FF204610BD2DE9FE4F804681EAE3
:100170000300C00F0C46009021F0004123F0004521
:10018000B8EB0200A94105D24046214690461C46E4
:100190000B46024623F00040104347D0270DC7F31B
:1001A0000A00C3F30A510290401A019040286BDA0A
:1001B000C3F3130040F4801B0098924620B1002343
:1001C000D2EB030A63EB0B0B01985946C0F14002D6
:1001D000504600F09FF806460D4650465946019A93
:1001E00000F0A7F810EB08006141002487EA1152E3
:1001F00084EAE7731A4340D0009A62B3019A012A55
:100200004FEA075215DC001B61EB02014FF0004280
:1002100002EA0752CDE90042001C41F58011324646
:100220002B4600F0DEF803B0BDE8F08F40462146D3
:10023000F9E7001B61EB0201001C41F58013001877
:100240005B412018A2F5001747EB030140EAD57087
:10025000B6196D4111E06D084FEA360645EAC075E2
:100260004FEA0752001B61EB0201001C41F58011AF
:1002700049084FEA30000019514132462B4603B07D
:10028000BDE8F04F00F09EB8009801224000002326
:10029000D0EB020263EBE073009821464FEAE07472
:1002A000B8EB000061EB0401E9E783F000435BE792
:1002B00081F0004158E700F0004230F000400AD0E1
:1002C000C10D01F56071C0F3160042EA0151C20888
:1002D00040071143704700200146704701F000437A
:1002E00030B421F0004150EA010206D00A0DA2F517
:1002F0006072C1F31301002A02DC30BC0020704799
:10030000440F44EAC104C100E01830BC00EBC25005
:1003100000F021B8202A04DB203A00FA02F1002084
:1003200070479140C2F1200320FA03F31943904033
:100330007047202A06DBCB17203A41FA02F043EA45
:10034000E07306E041FA02F3D040C2F1200291408E
:100350000843194670470029A8BF7047401C490050
:1003600008BF20F00100704710B4B0FA80FC00FA1A
:100370000CF050EA010404BF10BC704749B1CCF145
:10038000200421FA04F411FA0CF118BF01212143D1
:100390000843A3EB0C01CB1D4FEA00614FEA10208C
:1003A00042BF002010BC704700EBC350104400292E
:1003B000A4BF10BC7047401C490008BF20F00100DA
:1003C00010BC704710B5141E73F1000408DA401C0D
:1003D00041F1000192185B411A4301D120F0010064
:1003E00010BD2DE9F04D92469B4611B1B1FA81F254
:1003F00002E0B0FA80F220329046FFF78BFF04460D
:100400000F4640EA0A0041EA0B0153465A460843A8
:1004100013D0114653EA010019D0C8F140025046EA
:10042000FFF780FE05460E46504659464246FFF706
:1004300071FF084305D0012004E020463946BDE89D
:10044000F08D0020054346EAE0762C4337430A98B6
:100450006305E40AA0EB08000022FD0A44EA4754C1
:100460000A3002D500200146E9E70105101969416B
:10047000DDE9084500196941BDE8F04DA2E700003B
:10048000064C074D06E0E06840F0010394E80700E1
:1004900098471034AC42F6D3FFF72CFE80190008C1
:1004A000A0190008FEE70000014800F06FB8000046
:1004B0007400002030B590F840500124AC40C56B6A
:1004C0006C60046863604368102B036803D0996014
:1004D0000068C26030BD9A600068C16030BD70477E
:1004E0007047020ECA70020C8A70020A4A700870C5
:1004F0007047000010B590F821100024022903D0A5
:100500000421816301243DE001680A6822F00E02A3
:100510000A6001680A6822F001020A601A4A01684A
:10052000914201D1012121E0174A1432914201D1B7
:1005300010211BE0144A2832914201D1891515E09F
:10054000114A3C32914201D189140FE00E4A5032D7
:10055000914202D14FF4803108E00B4A643291425B
:1005600002D14FF4801101E04FF08071064A083A41
:100570005160012180F82110002180F82010416B8A
:1005800001B18847204610BD080002402DE9F05F08
:10059000C16B0C6801680B68D0F840C0042202FAF5
:1005A0000CF2494DDFF824A1494E4A4FDFF828B13B
:1005B000DFF828E122422CD05A072AD50A68920691
:1005C00003D40A6822F004020A600168A94201D13A
:1005D000042219E0514501D1402215E0B14202D177
:1005E0004FF4806210E0B94202D14FF480420BE038
:1005F000594502D14FF4802206E0714502D14FF4F3
:10060000800201E04FF080622F4908394A60C16AD8
:100610003BE04FF0020808FA0CF818EA040F4FF01C
:1006200000094FF0010235D05FEA837832D50B68BC
:100630009B0605D40B6823F00A030B6080F8212089
:100640000168A94201D1022219E0514501D12022BD
:1006500015E0B14202D14FF4007210E0B94202D16C
:100660004FF400520BE0594502D14FF4003206E03E
:10067000714502D14FF4001201E04FF000721249AF
:1006800008394A6080F82090816A00291AD0BDE8B4
:10069000F05F0847082505FA0CF5254212D01B0724
:1006A00010D50B6823F00E030B6090F84010C36B5D
:1006B00002FA01F15960826380F8212080F82090CD
:1006C000016BE2E7BDE8F09F080002401C00024019
:1006D0003000024044000240580002406C000240DA
:1006E00030B528B308C8134914221944B1FBF2F1FC
:1006F0008900C16310498163022141771A6843F67A
:10070000F0718A43D0E900142143D0E902452C431B
:1007100021430469214344692143846921431143EE
:10072000196000214163012242770177084630BDFC
:10073000012030BDF8FFFDBF0000024070B5044647
:1007400090F82000002501280CD0012084F820001A
:1007500094F821600020012E06D084F820000225A4
:10076000284670BD022070BD022684F82160A06377
:100770002068066826F0010606602046FFF79AFE0C
:10078000E06A00282068016802D041F00E0106E00E
:1007900021F0040101602068016841F00A01016054
:1007A0002068016841F001010160D9E72DE9F84FA7
:1007B000DFF8B891002409F1040A0AF1040B23467A
:1007C0000F270BF1040EC9E00125A5402A40AA42DB
:1007D0007DD1674ED1F804C0ACEB0608B44532D0E9
:1007E00014DCBCF1030F3AD009DCBCF1000F2AD0B5
:1007F000BCF1010F1CD0BCF1020F31D11DE0BCF1E6
:10080000110F17D0BCF1120F2AD119E0B8F5881FCB
:1008100019D006DCB8F5803F15D0B8F5801F1FD180
:1008200011E0B8F5001F0ED0B8F5041F18D10AE08A
:10083000CB6815E0CB681B1D12E0CB6808330FE0D6
:10084000CB680C330CE08B682BB1012B4FF0080305
:1008500003D0456104E0042302E0056100E00023C9
:10086000FF2A01D8064601E000F104064FEA84059C
:1008700001D9A5F12005D6F8008007FA05FC28EA81
:100880000C0803FA05F548EA0508C6F800804D682B
:10089000ED0062D5374DAE6946F00106AE61AD6937
:1008A00024F0030605F001050095334D06EB050C19
:1008B000DCF80850A607360F07FA06F825EA0805FF
:1008C000DFF8B880404503D14FF0000817E044E05E
:1008D000DFF8AC80404502D14FF001080FE0DFF8AF
:1008E000A480404502D14FF0020808E0DFF898806C
:1008F000404502D14FF0030801E04FF0040808FA28
:1009000006F848EA0508CCF808804D68D9F8006078
:10091000ED034D4601D5164300E096432E604D6829
:10092000DAF80060AD03554601D5164300E0964362
:100930002E604D68DBF80060ED025D4601D5164380
:1009400000E096432E604D68DEF80060AD0275460B
:1009500001D5164300E096432E60641C0D682A46BC
:10096000E5407FF431AFBDE8F88F0000000401409E
:10097000000011100010024000000140000801407A
:10098000000C014000100140001401400148806843
:10099000704700000400002002488168027811447A
:1009A0008160704704000020074810B5016841F0DD
:1009B00010010160032000F075F8002000F006F837
:1009C00000F024F8002010BD0020024070B50D4D4D
:1009D00004464FF47A712878B1FBF0F00A490968AF
:1009E000B1FBF0F000F0F8FA48B9102C07D2002261
:1009F0002146501E00F036F800206C6070BD0120CA
:100A000070BD000004000020100000200C4808B554
:100A1000816941F001018161816901F00101009169
:100A2000C16941F08051C161C06900F080500090FF
:100A30000448416821F0E06141F00071416008BD67
:100A40000010024000000140002809DB00F01F02F6
:100A5000012191404009800000F1E020C0F8001120
:100A600070470000F0B40E4B1B680C46C3F3022322
:100A7000C3F10705042D00D90425191D072901D24A
:100A8000002300E0DB1E012606FA05F1491E214085
:100A900099409E40761E16403143F0BC00F08FBE58
:100AA0000CED00E0064900F0070208684FF6FF036E
:100AB000184040EA0220034A1043086070470000D3
:100AC0000CED00E00000FA052DE9F0470F460500A7
:100AD00061D0434E306800F00700B84209D2306858
:100AE00020F0070038433060306800F00700B8425B
:100AF00051D128683B4C810712D5400703D5606867
:100B000040F4E06060602878000703D5606840F436
:100B1000605060606068A96820F0F0000843606081
:100B20002878C00728D06868012810D021680228DA
:100B300010D0890700292EDA616821F003010143F2
:100B40006160FFF723FF804641F288390DE021689C
:100B50008903EFE78901EDE7FFF718FFA0EB080134
:100B6000494502D90320BDE8F0876068696800F054
:100B70000C00B0EB810FEFD1306800F00700B842F5
:100B80000BD9306820F0070038433060306800F03F
:100B90000700B84201D00120E5E72878400705D5D5
:100BA0006068E96820F4E060084360602878000726
:100BB00006D56068296920F4605040EAC100606091
:100BC00000F038F86168084AC1F30311515CC8406D
:100BD0000649086006480068FFF7F8FE0020C2E7F3
:100BE0000020024000100240681900081000002098
:100BF000080000200448054900684968044AC1F318
:100C00000221515CC84070471000002000100240D3
:100C1000781900080448054900684968044AC1F386
:100C2000C221515CC84070471000002000100240F3
:100C30007819000812A185B00FC98DE80F0014A023
:100C4000144A006804905168134801F00C03042B07
:100C500010D0082B0ED1C1F38343C9031DF8030044
:100C60000AD5516804AAC1F34041515C0A4A504375
:100C7000B0FBF1F005B0704708494843FAE70000BF
:100C800002030405060708090A0B0C0D0E0F1010CD
:100C9000010200000010024000127A0000093D002D
:100CA0002DE9F84F040070D02078C04DC00749D01E
:100CB0006868C0F38100012807D06868C0F381002C
:100CC000022809D16868C00306D52868800339D591
:100CD00060680028E7D035E06068B0F5803F0BD051
:100CE00010B1B0F5A02F11D0286820F48030286012
:100CF000286820F4802002E0286840F480302860D2
:100D0000606890B1FFF742FE06460AE0286840F4AA
:100D100080202860F0E700BFFFF738FE801B6428C2
:100D200073D828688003F7D50CE0FFF72FFE06463E
:100D300005E000BFFFF72AFE801B6428F0D8286872
:100D40008003F7D420789A4E80074FF001094FF0C6
:100D5000000839D5686810F00C0F07D06868C0F338
:100D60008100022809D16868C00306D4286880077A
:100D700014D52069012808D110E02069B0B1C6F867
:100D80000090FFF703FE074605E00AE1FFF7FEFDCE
:100D9000C01B0228C4D828688007F7D52868616975
:100DA00020F0F80040EAC10028600DE0C6F800809D
:100DB000FFF7ECFD074604E0FFF7E8FDC01B022843
:100DC00023D828688007F7D4207800072CD57948E5
:100DD000A169D9B1C0F80090FFF7D8FD074604E03B
:100DE000FFF7D4FDC01B02280FD8686A8007F7D52B
:100DF00071484FF4FA510068B0FBF1F0009000BF69
:100E00000098411E0091FAD20EE080E0C0F8008008
:100E1000FFF7BCFD074604E0FFF7B8FDC01B022842
:100E200075D8686A8007F7D42078400760D5E869EC
:100E30000027C00008D4E86940F08050E861E86904
:100E4000012700F0805000905C480168C90513D468
:100E50000168834641F480710160FFF797FD824687
:100E600006E000BFFFF792FDA0EB0A0064284ED811
:100E7000DBF80000C005F5D5E06801280AD008B10C
:100E8000052813D0286A20F001002862286A20F083
:100E9000040002E0286A40F001002862E06841F2A4
:100EA000883B98B1FFF772FD82460BE0286A40F05C
:100EB00004002862EEE700BFFFF768FDA0EB0A011F
:100EC00059455AD8286A8007F6D50CE0FFF75EFD31
:100ED000824605E0FFF75AFDA0EB0A0159454CD8C0
:100EE000286A8007F6D41FB1E86920F08050E861D5
:100EF000E06988B36968C1F38101022944D00228FE
:100F0000C6F8608004D0FFF741FD044638E034E0C5
:100F1000FFF73CFD074604E0FFF738FDC01B022841
:100F20002BD828688001F7D4206AB0F5803F05D11E
:100F30006868A16820F4003008436860D4E90801BB
:100F40000843696821F4741108436860C6F860902A
:100F5000FFF71CFD044606E025E000BFFFF716FD85
:100F6000001B022809D828688001F7D51BE000BFC4
:100F7000FFF70CFD001B022802D90320BDE8F88F03
:100F800028688001F4D40EE00128F7D06868226A4E
:100F900000F48031914204D1616A00F470108842FB
:100FA00001D00120EAE70020E8E70000001002403D
:100FB00000004242800442421000002000700040C5
:100FC0004FF0E0210428086903D020F004000861F4
:100FD000704740F00400FAE710B5401EB0F1807F82
:100FE00001D3012010BD4FF0E02460610F21601794
:100FF00000F0E5FB0020A06107202061002010BD6B
:101000007047000070B5026804461068D1685369E3
:1010100010F00F0F53D003F0010501F490762E432A
:101020005FD0C20705D0CA0503D5E26B42F00102CA
:10103000E263420705D5DA0703D0E26B42F0020211
:10104000E263820705D5DA0703D0E26B42F00402BF
:10105000E263020707D501F020022A4303D0E26BC6
:1010600042F00802E263E26B002A34D0800604D525
:10107000880602D5204600F082FA20684069E16BBC
:10108000C0F3801001F008010143204624D000F095
:101090005FFA2068416949061AD5416921F040018B
:1010A0004161606BA0B12D494163606BFFF722FA8B
:1010B000002810D0606B416BBDE870400847830684
:1010C0000FD58B060DD52046BDE8704000F057BA0D
:1010D0002046FFF795FF70BDFFF792FF0020E06309
:1010E00070BD03062BD50B0629D594F839002128AD
:1010F000F6D1A068B0F5805F01D12069B0B1206A57
:10110000411C2162216800784860E08C401E000488
:10111000000CE084E4D12068C16821F08001C16046
:101120002068C16841F04001C16070BD206A00883C
:10113000C0F308005060206A801C2062E5E740068A
:10114000F3D54806F1D5D168204621F04001D160A1
:10115000202184F8391000F033F970BDBF14000865
:1011600070B5040004D094F83900002510B106E0F1
:10117000012070BD84F83850204600F023F8242068
:1011800084F839002068C16821F40051C16020460C
:1011900000F03CFA2068016921F490410161206867
:1011A000416921F02A0141612068C16841F4005180
:1011B000C160E563202084F8390084F83A000020FB
:1011C00070BD000070B586B00025064600950195FB
:1011D0000295039500682549884244D124498869CD
:1011E00040F480408861886900F4804004908869F8
:1011F00040F00400886188691E4C00F004000490EF
:101200004815009002200190032003906946204673
:10121000FFF7CCFA2015CDE9000569462046029576
:10122000FFF7C4FA154C144820601020C4E90105EA
:101230008020C4E903056561A5612046E561FFF7EB
:101240004FFA08B1FFF74CF934630022114625200C
:101250006662FFF707FC2520FFF7F6FB20680168B0
:1012600041F00101016006B070BD0000003801408E
:1012700000100240000801404400024074000020B9
:101280002DE9F84F044690F83A009A4616460D4666
:10129000202851D1EDB1E6B194F8380001284BD0A7
:1012A000012084F838000027E763222084F83A0000
:1012B000FFF76CFBA6858146E685A0684FF4805851
:1012C000404501D1206938B12E46002584F8387098
:1012D00027E00120BDE8F88F0026F7E74B46002203
:1012E00020212046CDF800A000F0ECF908B1032041
:1012F000F0E726B1A06840451BD038B108E020686F
:101300004068C0F3080025F8020B07E0206980B1AF
:101310002068406800F07F0006F8010BE08D401E59
:10132000E085E08D0028D9D1202084F83A00002003
:10133000D0E720684068EFE70220CBE77047000065
:1013400070B5044690F83900202830D169B362B3F3
:1013500094F8380001282AD0012084F8380021624E
:10136000A284E2840025E563212084F83900236B00
:1013700010489862236B1048D862236B0F4818639B
:10138000206B134645632668206B321DFFF7D6F9A4
:1013900021686FF04000086084F838502068416987
:1013A00041F080014161002070BD012070BD02202C
:1013B00070BD00001915000847150008CF1400087B
:1013C00070477047FEE7020ECA70020C8A70020A6C
:1013D0004A70087070470000094808B5416941F03B
:1013E000010141614069002200F0010000901146B6
:1013F0000E20FFF737FBBDE808400E20FFF724BBA7
:1014000000100240054808B5816941F0040181617E
:10141000806900F00400009008BD00000010024048
:101420000D4810B50B4901604FF416514160002181
:1014300081600C22C160C0E904128161C161FFF7C3
:101440008FFE08B1FFF74CF8BDE810400248FFF7E7
:10145000B9BE00000038014034000020FEE77047AC
:1014600070477047020A4A7008707047FFF794BAD5
:1014700030B58FB028216846FEF76BFE14210AA80C
:10148000FEF767FE022401200490009410200590CE
:1014900000254FF46010CDE9085007946846FFF727
:1014A000FFFB0AA90F2081E831006002CDE90D059C
:1014B00002210AA8FFF708FB0FB030BD704710B536
:1014C000406A0021C185C184FFF79AFD10BD70B547
:1014D000446A2068406994F83910C0F3C0100025B0
:1014E000212904D118B1E584204600F03FF8206896
:1014F000406994F83A10C0F38010222904D118B141
:10150000E585204600F024F8E06B40F01000E06331
:101510002046FFF775FD70BD10B50146406A0968A9
:10152000096889060CD40021C18401684A6922F047
:1015300080024A610068C16841F04001C16010BD8D
:10154000FFF73EFF10BD10B5406AFFF73AFF10BD30
:101550000168CA6822F49072CA6001684A6922F080
:1015600001024A61202180F83A1070470168CA6878
:1015700022F0C002CA60202180F83910704710B5EF
:1015800090F83A10222901D0022010BD82684FF451
:1015900080539A4201D1016921B1816A9A421BD0DC
:1015A0004AB10AE00268816A5268C2F308020A80FE
:1015B000816A891C08E0026972B10268526802F00F
:1015C0007F020A70816A491C8162C18D491E09042B
:1015D000090CC18503D016E002685268F1E7016882
:1015E000CA6822F02002CA600168CA6822F48072C8
:1015F000CA6001684A6922F001024A61202180F82C
:101600003A10FFF79BFE002010BD000070B50446A5
:1016100000680169E26821F44051114301612169C8
:10162000A0680843616908432168CA6841F20C63F5
:101630009A430243CA6020684169A26921F440715B
:10164000114341611E492068884202D1FFF7E2FA46
:1016500001E0FFF7CFFA00EBC00101EB0012606878
:1016600064218000B2FBF0F3B3FBF1F36FF01806D6
:101670007343B2FBF0F5B2FBF0F605EB83053223C2
:1016800003EB0515B5FBF1F5B6FBF1F605F0F0053A
:1016900005EB0615B2FBF0F6B2FBF0F0B0FBF1F093
:1016A0006FF01802504306EB800003EB0010B0FB14
:1016B000F1F0216800F00F002844886070BD000040
:1016C000003801402DE9F041984617460E46044681
:1016D000069D1DE0681C1BD02DB1FFF757F9A0EB4C
:1016E0000800A84214D92068C16821F4D071C160F3
:1016F0002068416921F001014161202084F839000E
:1017000084F83A00002084F838000320BDE8F08116
:101710002068006836EA000004D00020B842D9D022
:101720000020F3E70120F9E710B500F007F8BDE865
:1017300010400148FFF766BC340000201E4810B579
:1017400000680068C043800634D41B4964230E221D
:1017500010391948FFF794FD174810380178A5296A
:1017600028D1417B5A2925D142788178C3780479E0
:101770001144234419444379047B1944837919445F
:10178000C3791944037A1944437A1944837A194472
:10179000C37A1944CBB200F194019C420AD10B7870
:1017A00043F001030B704A7042884A8042684A60E5
:1017B0008068886010BD000034000020FEE7090743
:1017C000090E002804DB00F1E02080F800147047C7
:1017D00000F00F0000F1E02080F8141D704702E0D7
:1017E00008C8121F08C1002AFAD1704770470020AC
:1017F00001E001C1121F002AFBD1704710B50B4C4C
:1018000022681368DB435B06FBD458B18AB20146F9
:101810000648FFF795FD20680168C9434906FBD4D7
:10182000002010BD4FF0FF3010BD0000340000203C
:1018300010B504460420FFF7C3FB0148046010BD47
:101840000000002070B5054600244FF47A7603E0CE
:10185000304600F005F8641CAC42F9D370BD0000BE
:1018600070B54FF0E024002265690949A369096851
:101870004843A1699942FCD002D2A3EB010302E0E4
:10188000A5EB010633441A440B468242F1D370BDE6
:1018900000000020FFF788F8FFF7EAFD4020FFF77F
:1018A000C7FFFFF7AFFDFFF797FDFFF7B9FD294829
:1018B0000068C16841F02001C160274D2878C00749
:1018C00043D068886E78801C0FFA80F96868761CAF
:1018D00000F10308A868FEF7EEFC204A204BFEF753
:1018E00043FCFEF7FBFC1F4C0746A52020706670EA
:1018F000A11C4846FFF7B6FD211D4046FFF763FDDA
:1019000004F108013846FEF7ECFD6078A1782279F1
:101910000844E1781144084461790844A1790844F5
:10192000E1790844217A0844617A0844A17A08449C
:10193000E17A084420735A2060730E212046FFF795
:101940005DFF287820F0010028706420FFF77AFFFF
:10195000B4E7000034000020B80000209A9999995B
:101960009999F13F140000200000000000000000E1
:101970000102030406070809000000000102030435
:10198000A01900080000002014000000DE17000865
:10199000B419000814000020B4040000EE17000879
:1019A0000000000001000000100000000000000026
:0419B0000024F4001B
:04000005080000ED02
:00000001FF
